{
  "_format": "hh-sol-artifact-1",
  "contractName": "HealthCareToken",
  "sourceName": "contracts/HospitalDonationV6.sol",
  "abi": [
    {
      "inputs": [],
      "stateMutability": "nonpayable",
      "type": "constructor"
    },
    {
      "inputs": [
        {
          "internalType": "address",
          "name": "sender",
          "type": "address"
        },
        {
          "internalType": "uint256",
          "name": "tokenId",
          "type": "uint256"
        },
        {
          "internalType": "address",
          "name": "owner",
          "type": "address"
        }
      ],
      "name": "ERC721IncorrectOwner",
      "type": "error"
    },
    {
      "inputs": [
        {
          "internalType": "address",
          "name": "operator",
          "type": "address"
        },
        {
          "internalType": "uint256",
          "name": "tokenId",
          "type": "uint256"
        }
      ],
      "name": "ERC721InsufficientApproval",
      "type": "error"
    },
    {
      "inputs": [
        {
          "internalType": "address",
          "name": "approver",
          "type": "address"
        }
      ],
      "name": "ERC721InvalidApprover",
      "type": "error"
    },
    {
      "inputs": [
        {
          "internalType": "address",
          "name": "operator",
          "type": "address"
        }
      ],
      "name": "ERC721InvalidOperator",
      "type": "error"
    },
    {
      "inputs": [
        {
          "internalType": "address",
          "name": "owner",
          "type": "address"
        }
      ],
      "name": "ERC721InvalidOwner",
      "type": "error"
    },
    {
      "inputs": [
        {
          "internalType": "address",
          "name": "receiver",
          "type": "address"
        }
      ],
      "name": "ERC721InvalidReceiver",
      "type": "error"
    },
    {
      "inputs": [
        {
          "internalType": "address",
          "name": "sender",
          "type": "address"
        }
      ],
      "name": "ERC721InvalidSender",
      "type": "error"
    },
    {
      "inputs": [
        {
          "internalType": "uint256",
          "name": "tokenId",
          "type": "uint256"
        }
      ],
      "name": "ERC721NonexistentToken",
      "type": "error"
    },
    {
      "inputs": [
        {
          "internalType": "address",
          "name": "owner",
          "type": "address"
        }
      ],
      "name": "OwnableInvalidOwner",
      "type": "error"
    },
    {
      "inputs": [
        {
          "internalType": "address",
          "name": "account",
          "type": "address"
        }
      ],
      "name": "OwnableUnauthorizedAccount",
      "type": "error"
    },
    {
      "anonymous": false,
      "inputs": [
        {
          "indexed": true,
          "internalType": "address",
          "name": "owner",
          "type": "address"
        },
        {
          "indexed": true,
          "internalType": "address",
          "name": "approved",
          "type": "address"
        },
        {
          "indexed": true,
          "internalType": "uint256",
          "name": "tokenId",
          "type": "uint256"
        }
      ],
      "name": "Approval",
      "type": "event"
    },
    {
      "anonymous": false,
      "inputs": [
        {
          "indexed": true,
          "internalType": "address",
          "name": "owner",
          "type": "address"
        },
        {
          "indexed": true,
          "internalType": "address",
          "name": "operator",
          "type": "address"
        },
        {
          "indexed": false,
          "internalType": "bool",
          "name": "approved",
          "type": "bool"
        }
      ],
      "name": "ApprovalForAll",
      "type": "event"
    },
    {
      "anonymous": false,
      "inputs": [
        {
          "indexed": false,
          "internalType": "uint256",
          "name": "_fromTokenId",
          "type": "uint256"
        },
        {
          "indexed": false,
          "internalType": "uint256",
          "name": "_toTokenId",
          "type": "uint256"
        }
      ],
      "name": "BatchMetadataUpdate",
      "type": "event"
    },
    {
      "anonymous": false,
      "inputs": [
        {
          "indexed": false,
          "internalType": "address",
          "name": "donor",
          "type": "address"
        },
        {
          "indexed": false,
          "internalType": "string",
          "name": "name",
          "type": "string"
        },
        {
          "indexed": false,
          "internalType": "string",
          "name": "surname",
          "type": "string"
        },
        {
          "indexed": false,
          "internalType": "uint256",
          "name": "amount",
          "type": "uint256"
        }
      ],
      "name": "DonationReceived",
      "type": "event"
    },
    {
      "anonymous": false,
      "inputs": [
        {
          "indexed": false,
          "internalType": "uint256",
          "name": "_tokenId",
          "type": "uint256"
        }
      ],
      "name": "MetadataUpdate",
      "type": "event"
    },
    {
      "anonymous": false,
      "inputs": [
        {
          "indexed": false,
          "internalType": "address",
          "name": "donor",
          "type": "address"
        },
        {
          "indexed": false,
          "internalType": "uint256",
          "name": "tokenId",
          "type": "uint256"
        },
        {
          "indexed": false,
          "internalType": "string",
          "name": "ipfsHash",
          "type": "string"
        }
      ],
      "name": "NFTClaimed",
      "type": "event"
    },
    {
      "anonymous": false,
      "inputs": [
        {
          "indexed": true,
          "internalType": "address",
          "name": "previousOwner",
          "type": "address"
        },
        {
          "indexed": true,
          "internalType": "address",
          "name": "newOwner",
          "type": "address"
        }
      ],
      "name": "OwnershipTransferred",
      "type": "event"
    },
    {
      "anonymous": false,
      "inputs": [
        {
          "indexed": true,
          "internalType": "address",
          "name": "from",
          "type": "address"
        },
        {
          "indexed": true,
          "internalType": "address",
          "name": "to",
          "type": "address"
        },
        {
          "indexed": true,
          "internalType": "uint256",
          "name": "tokenId",
          "type": "uint256"
        }
      ],
      "name": "Transfer",
      "type": "event"
    },
    {
      "inputs": [],
      "name": "BRONZE_MAX_SUPPLY",
      "outputs": [
        {
          "internalType": "uint256",
          "name": "",
          "type": "uint256"
        }
      ],
      "stateMutability": "view",
      "type": "function"
    },
    {
      "inputs": [],
      "name": "BRONZE_START_ID",
      "outputs": [
        {
          "internalType": "uint256",
          "name": "",
          "type": "uint256"
        }
      ],
      "stateMutability": "view",
      "type": "function"
    },
    {
      "inputs": [],
      "name": "BRONZE_THRESHOLD",
      "outputs": [
        {
          "internalType": "uint256",
          "name": "",
          "type": "uint256"
        }
      ],
      "stateMutability": "view",
      "type": "function"
    },
    {
      "inputs": [],
      "name": "GOLD_MAX_SUPPLY",
      "outputs": [
        {
          "internalType": "uint256",
          "name": "",
          "type": "uint256"
        }
      ],
      "stateMutability": "view",
      "type": "function"
    },
    {
      "inputs": [],
      "name": "GOLD_START_ID",
      "outputs": [
        {
          "internalType": "uint256",
          "name": "",
          "type": "uint256"
        }
      ],
      "stateMutability": "view",
      "type": "function"
    },
    {
      "inputs": [],
      "name": "GOLD_THRESHOLD",
      "outputs": [
        {
          "internalType": "uint256",
          "name": "",
          "type": "uint256"
        }
      ],
      "stateMutability": "view",
      "type": "function"
    },
    {
      "inputs": [],
      "name": "PLATINUM_MAX_SUPPLY",
      "outputs": [
        {
          "internalType": "uint256",
          "name": "",
          "type": "uint256"
        }
      ],
      "stateMutability": "view",
      "type": "function"
    },
    {
      "inputs": [],
      "name": "PLATINUM_START_ID",
      "outputs": [
        {
          "internalType": "uint256",
          "name": "",
          "type": "uint256"
        }
      ],
      "stateMutability": "view",
      "type": "function"
    },
    {
      "inputs": [],
      "name": "SILVER_MAX_SUPPLY",
      "outputs": [
        {
          "internalType": "uint256",
          "name": "",
          "type": "uint256"
        }
      ],
      "stateMutability": "view",
      "type": "function"
    },
    {
      "inputs": [],
      "name": "SILVER_START_ID",
      "outputs": [
        {
          "internalType": "uint256",
          "name": "",
          "type": "uint256"
        }
      ],
      "stateMutability": "view",
      "type": "function"
    },
    {
      "inputs": [],
      "name": "SILVER_THRESHOLD",
      "outputs": [
        {
          "internalType": "uint256",
          "name": "",
          "type": "uint256"
        }
      ],
      "stateMutability": "view",
      "type": "function"
    },
    {
      "inputs": [
        {
          "internalType": "address",
          "name": "to",
          "type": "address"
        },
        {
          "internalType": "uint256",
          "name": "tokenId",
          "type": "uint256"
        }
      ],
      "name": "approve",
      "outputs": [],
      "stateMutability": "nonpayable",
      "type": "function"
    },
    {
      "inputs": [
        {
          "internalType": "address",
          "name": "owner",
          "type": "address"
        }
      ],
      "name": "balanceOf",
      "outputs": [
        {
          "internalType": "uint256",
          "name": "",
          "type": "uint256"
        }
      ],
      "stateMutability": "view",
      "type": "function"
    },
    {
      "inputs": [],
      "name": "bronzeSupply",
      "outputs": [
        {
          "internalType": "uint256",
          "name": "",
          "type": "uint256"
        }
      ],
      "stateMutability": "view",
      "type": "function"
    },
    {
      "inputs": [
        {
          "internalType": "string",
          "name": "_ipfsHash",
          "type": "string"
        }
      ],
      "name": "claimNFT",
      "outputs": [],
      "stateMutability": "nonpayable",
      "type": "function"
    },
    {
      "inputs": [
        {
          "internalType": "string",
          "name": "_name",
          "type": "string"
        },
        {
          "internalType": "string",
          "name": "_surname",
          "type": "string"
        }
      ],
      "name": "donate",
      "outputs": [],
      "stateMutability": "payable",
      "type": "function"
    },
    {
      "inputs": [
        {
          "internalType": "address",
          "name": "",
          "type": "address"
        }
      ],
      "name": "donations",
      "outputs": [
        {
          "internalType": "string",
          "name": "name",
          "type": "string"
        },
        {
          "internalType": "string",
          "name": "surname",
          "type": "string"
        },
        {
          "internalType": "uint256",
          "name": "amount",
          "type": "uint256"
        }
      ],
      "stateMutability": "view",
      "type": "function"
    },
    {
      "inputs": [
        {
          "internalType": "uint256",
          "name": "tokenId",
          "type": "uint256"
        }
      ],
      "name": "getApproved",
      "outputs": [
        {
          "internalType": "address",
          "name": "",
          "type": "address"
        }
      ],
      "stateMutability": "view",
      "type": "function"
    },
    {
      "inputs": [],
      "name": "goldSupply",
      "outputs": [
        {
          "internalType": "uint256",
          "name": "",
          "type": "uint256"
        }
      ],
      "stateMutability": "view",
      "type": "function"
    },
    {
      "inputs": [
        {
          "internalType": "address",
          "name": "owner",
          "type": "address"
        },
        {
          "internalType": "address",
          "name": "operator",
          "type": "address"
        }
      ],
      "name": "isApprovedForAll",
      "outputs": [
        {
          "internalType": "bool",
          "name": "",
          "type": "bool"
        }
      ],
      "stateMutability": "view",
      "type": "function"
    },
    {
      "inputs": [],
      "name": "name",
      "outputs": [
        {
          "internalType": "string",
          "name": "",
          "type": "string"
        }
      ],
      "stateMutability": "view",
      "type": "function"
    },
    {
      "inputs": [],
      "name": "owner",
      "outputs": [
        {
          "internalType": "address",
          "name": "",
          "type": "address"
        }
      ],
      "stateMutability": "view",
      "type": "function"
    },
    {
      "inputs": [
        {
          "internalType": "uint256",
          "name": "tokenId",
          "type": "uint256"
        }
      ],
      "name": "ownerOf",
      "outputs": [
        {
          "internalType": "address",
          "name": "",
          "type": "address"
        }
      ],
      "stateMutability": "view",
      "type": "function"
    },
    {
      "inputs": [],
      "name": "platinumSupply",
      "outputs": [
        {
          "internalType": "uint256",
          "name": "",
          "type": "uint256"
        }
      ],
      "stateMutability": "view",
      "type": "function"
    },
    {
      "inputs": [],
      "name": "renounceOwnership",
      "outputs": [],
      "stateMutability": "nonpayable",
      "type": "function"
    },
    {
      "inputs": [
        {
          "internalType": "address",
          "name": "from",
          "type": "address"
        },
        {
          "internalType": "address",
          "name": "to",
          "type": "address"
        },
        {
          "internalType": "uint256",
          "name": "tokenId",
          "type": "uint256"
        }
      ],
      "name": "safeTransferFrom",
      "outputs": [],
      "stateMutability": "nonpayable",
      "type": "function"
    },
    {
      "inputs": [
        {
          "internalType": "address",
          "name": "from",
          "type": "address"
        },
        {
          "internalType": "address",
          "name": "to",
          "type": "address"
        },
        {
          "internalType": "uint256",
          "name": "tokenId",
          "type": "uint256"
        },
        {
          "internalType": "bytes",
          "name": "data",
          "type": "bytes"
        }
      ],
      "name": "safeTransferFrom",
      "outputs": [],
      "stateMutability": "nonpayable",
      "type": "function"
    },
    {
      "inputs": [
        {
          "internalType": "address",
          "name": "operator",
          "type": "address"
        },
        {
          "internalType": "bool",
          "name": "approved",
          "type": "bool"
        }
      ],
      "name": "setApprovalForAll",
      "outputs": [],
      "stateMutability": "nonpayable",
      "type": "function"
    },
    {
      "inputs": [],
      "name": "silverSupply",
      "outputs": [
        {
          "internalType": "uint256",
          "name": "",
          "type": "uint256"
        }
      ],
      "stateMutability": "view",
      "type": "function"
    },
    {
      "inputs": [
        {
          "internalType": "bytes4",
          "name": "interfaceId",
          "type": "bytes4"
        }
      ],
      "name": "supportsInterface",
      "outputs": [
        {
          "internalType": "bool",
          "name": "",
          "type": "bool"
        }
      ],
      "stateMutability": "view",
      "type": "function"
    },
    {
      "inputs": [],
      "name": "symbol",
      "outputs": [
        {
          "internalType": "string",
          "name": "",
          "type": "string"
        }
      ],
      "stateMutability": "view",
      "type": "function"
    },
    {
      "inputs": [
        {
          "internalType": "uint256",
          "name": "tokenId",
          "type": "uint256"
        }
      ],
      "name": "tokenURI",
      "outputs": [
        {
          "internalType": "string",
          "name": "",
          "type": "string"
        }
      ],
      "stateMutability": "view",
      "type": "function"
    },
    {
      "inputs": [
        {
          "internalType": "address",
          "name": "from",
          "type": "address"
        },
        {
          "internalType": "address",
          "name": "to",
          "type": "address"
        },
        {
          "internalType": "uint256",
          "name": "tokenId",
          "type": "uint256"
        }
      ],
      "name": "transferFrom",
      "outputs": [],
      "stateMutability": "nonpayable",
      "type": "function"
    },
    {
      "inputs": [
        {
          "internalType": "address",
          "name": "newOwner",
          "type": "address"
        }
      ],
      "name": "transferOwnership",
      "outputs": [],
      "stateMutability": "nonpayable",
      "type": "function"
    },
    {
      "inputs": [],
      "name": "withdrawFunds",
      "outputs": [],
      "stateMutability": "nonpayable",
      "type": "function"
    }
  ],
  "bytecode": "0x60806040523480156200001157600080fd5b50336040518060400160405280601181526020017f4865616c7468204361726520546f6b656e0000000000000000000000000000008152506040518060400160405280600381526020017f4843540000000000000000000000000000000000000000000000000000000000815250816000908162000090919062000472565b508060019081620000a2919062000472565b505050600073ffffffffffffffffffffffffffffffffffffffff168173ffffffffffffffffffffffffffffffffffffffff16036200011a5760006040517f1e4fbdf70000000000000000000000000000000000000000000000000000000081526004016200011191906200059e565b60405180910390fd5b6200012b816200013260201b60201c565b50620005bb565b6000600760009054906101000a900473ffffffffffffffffffffffffffffffffffffffff16905081600760006101000a81548173ffffffffffffffffffffffffffffffffffffffff021916908373ffffffffffffffffffffffffffffffffffffffff1602179055508173ffffffffffffffffffffffffffffffffffffffff168173ffffffffffffffffffffffffffffffffffffffff167f8be0079c531659141344cd1fd0a4f28419497f9722a3daafe3b4186f6b6457e060405160405180910390a35050565b600081519050919050565b7f4e487b7100000000000000000000000000000000000000000000000000000000600052604160045260246000fd5b7f4e487b7100000000000000000000000000000000000000000000000000000000600052602260045260246000fd5b600060028204905060018216806200027a57607f821691505b60208210810362000290576200028f62000232565b5b50919050565b60008190508160005260206000209050919050565b60006020601f8301049050919050565b600082821b905092915050565b600060088302620002fa7fffffffffffffffffffffffffffffffffffffffffffffffffffffffffffffffff82620002bb565b620003068683620002bb565b95508019841693508086168417925050509392505050565b6000819050919050565b6000819050919050565b6000620003536200034d62000347846200031e565b62000328565b6200031e565b9050919050565b6000819050919050565b6200036f8362000332565b620003876200037e826200035a565b848454620002c8565b825550505050565b600090565b6200039e6200038f565b620003ab81848462000364565b505050565b5b81811015620003d357620003c760008262000394565b600181019050620003b1565b5050565b601f8211156200042257620003ec8162000296565b620003f784620002ab565b8101602085101562000407578190505b6200041f6200041685620002ab565b830182620003b0565b50505b505050565b600082821c905092915050565b6000620004476000198460080262000427565b1980831691505092915050565b600062000462838362000434565b9150826002028217905092915050565b6200047d82620001f8565b67ffffffffffffffff81111562000499576200049862000203565b5b620004a5825462000261565b620004b2828285620003d7565b600060209050601f831160018114620004ea5760008415620004d5578287015190505b620004e1858262000454565b86555062000551565b601f198416620004fa8662000296565b60005b828110156200052457848901518255600182019150602085019450602081019050620004fd565b8683101562000544578489015162000540601f89168262000434565b8355505b6001600288020188555050505b505050505050565b600073ffffffffffffffffffffffffffffffffffffffff82169050919050565b6000620005868262000559565b9050919050565b620005988162000579565b82525050565b6000602082019050620005b560008301846200058d565b92915050565b61374480620005cb6000396000f3fe6080604052600436106102045760003560e01c80636edf154911610118578063af21a628116100a0578063c87b56dd1161006f578063c87b56dd14610718578063cc6cb19a14610755578063e985e9c514610794578063f0e78dd5146107d1578063f2fde38b146107fc57610204565b8063af21a6281461066e578063b88d4fde14610699578063c1a0db30146106c2578063c4d05a95146106ed57610204565b80638da5cb5b116100e75780638da5cb5b1461059957806395d89b41146105c4578063a22cb465146105ef578063a6e59a3114610618578063ac0a48651461064357610204565b80636edf1549146104ef57806370a082311461051a578063715018a6146105575780638c7f44be1461056e57610204565b806323b872dd1161019b57806342842e0e1161016a57806342842e0e14610408578063569739741461043157806358d072671461045c5780636352211e1461048757806369a2f026146104c457610204565b806323b872dd1461037257806324600fc31461039b578063371aee01146103b25780633abb9f91146103dd57610204565b80630bd18a17116101d75780630bd18a17146102d7578063117207561461030257806315d6f2ce1461032b5780631653441c1461035657610204565b806301ffc9a71461020957806306fdde0314610246578063081812fc14610271578063095ea7b3146102ae575b600080fd5b34801561021557600080fd5b50610230600480360381019061022b919061280b565b610825565b60405161023d9190612853565b60405180910390f35b34801561025257600080fd5b5061025b610837565b60405161026891906128fe565b60405180910390f35b34801561027d57600080fd5b5061029860048036038101906102939190612956565b6108c9565b6040516102a591906129c4565b60405180910390f35b3480156102ba57600080fd5b506102d560048036038101906102d09190612a0b565b6108e5565b005b3480156102e357600080fd5b506102ec6108fb565b6040516102f99190612a5a565b60405180910390f35b34801561030e57600080fd5b5061032960048036038101906103249190612baa565b610900565b005b34801561033757600080fd5b50610340610d21565b60405161034d9190612a5a565b60405180910390f35b610370600480360381019061036b9190612bf3565b610d26565b005b34801561037e57600080fd5b5061039960048036038101906103949190612c6b565b610ef4565b005b3480156103a757600080fd5b506103b0610ff6565b005b3480156103be57600080fd5b506103c7611091565b6040516103d49190612a5a565b60405180910390f35b3480156103e957600080fd5b506103f2611097565b6040516103ff9190612a5a565b60405180910390f35b34801561041457600080fd5b5061042f600480360381019061042a9190612c6b565b61109d565b005b34801561043d57600080fd5b506104466110bd565b6040516104539190612a5a565b60405180910390f35b34801561046857600080fd5b506104716110c9565b60405161047e9190612a5a565b60405180910390f35b34801561049357600080fd5b506104ae60048036038101906104a99190612956565b6110cf565b6040516104bb91906129c4565b60405180910390f35b3480156104d057600080fd5b506104d96110e1565b6040516104e69190612a5a565b60405180910390f35b3480156104fb57600080fd5b506105046110ed565b6040516105119190612a5a565b60405180910390f35b34801561052657600080fd5b50610541600480360381019061053c9190612cbe565b6110f3565b60405161054e9190612a5a565b60405180910390f35b34801561056357600080fd5b5061056c6111ad565b005b34801561057a57600080fd5b506105836111c1565b6040516105909190612a5a565b60405180910390f35b3480156105a557600080fd5b506105ae6111c7565b6040516105bb91906129c4565b60405180910390f35b3480156105d057600080fd5b506105d96111f1565b6040516105e691906128fe565b60405180910390f35b3480156105fb57600080fd5b5061061660048036038101906106119190612d17565b611283565b005b34801561062457600080fd5b5061062d611299565b60405161063a9190612a5a565b60405180910390f35b34801561064f57600080fd5b5061065861129f565b6040516106659190612a5a565b60405180910390f35b34801561067a57600080fd5b506106836112a5565b6040516106909190612a5a565b60405180910390f35b3480156106a557600080fd5b506106c060048036038101906106bb9190612df8565b6112aa565b005b3480156106ce57600080fd5b506106d76112c7565b6040516106e49190612a5a565b60405180910390f35b3480156106f957600080fd5b506107026112d3565b60405161070f9190612a5a565b60405180910390f35b34801561072457600080fd5b5061073f600480360381019061073a9190612956565b6112d9565b60405161074c91906128fe565b60405180910390f35b34801561076157600080fd5b5061077c60048036038101906107779190612cbe565b6112eb565b60405161078b93929190612e7b565b60405180910390f35b3480156107a057600080fd5b506107bb60048036038101906107b69190612ec0565b611425565b6040516107c89190612853565b60405180910390f35b3480156107dd57600080fd5b506107e66114b9565b6040516107f39190612a5a565b60405180910390f35b34801561080857600080fd5b50610823600480360381019061081e9190612cbe565b6114bf565b005b600061083082611545565b9050919050565b60606000805461084690612f2f565b80601f016020809104026020016040519081016040528092919081815260200182805461087290612f2f565b80156108bf5780601f10610894576101008083540402835291602001916108bf565b820191906000526020600020905b8154815290600101906020018083116108a257829003601f168201915b5050505050905090565b60006108d4826115a6565b506108de8261162e565b9050919050565b6108f782826108f261166b565b611673565b5050565b601981565b600061090a61166b565b90506000600960008373ffffffffffffffffffffffffffffffffffffffff1673ffffffffffffffffffffffffffffffffffffffff1681526020019081526020016000206002015411610991576040517f08c379a000000000000000000000000000000000000000000000000000000000815260040161098890612fac565b60405180910390fd5b60006008549050600860008154809291906109ab90612ffb565b919050555067044d575b885f0000600960008473ffffffffffffffffffffffffffffffffffffffff1673ffffffffffffffffffffffffffffffffffffffff1681526020019081526020016000206002015411158015610a0d57506103e8600a54105b15610a3f57610a2282826001600a5487611685565b600a6000815480929190610a3590612ffb565b9190505550610cd4565b67044d575b885f0000600960008473ffffffffffffffffffffffffffffffffffffffff1673ffffffffffffffffffffffffffffffffffffffff16815260200190815260200160002060020154118015610ae257506715a63bbc199c0000600960008473ffffffffffffffffffffffffffffffffffffffff1673ffffffffffffffffffffffffffffffffffffffff1681526020019081526020016000206002015411155b8015610af157506101f4600b54105b15610b2457610b0782826103e9600b5487611685565b600b6000815480929190610b1a90612ffb565b9190505550610cd3565b6715a63bbc199c0000600960008473ffffffffffffffffffffffffffffffffffffffff1673ffffffffffffffffffffffffffffffffffffffff16815260200190815260200160002060020154118015610bc75750676c1ba3ba104b0000600960008473ffffffffffffffffffffffffffffffffffffffff1673ffffffffffffffffffffffffffffffffffffffff1681526020019081526020016000206002015411155b8015610bd5575060fa600c54105b15610c0857610beb82826105dd600c5487611685565b600c6000815480929190610bfe90612ffb565b9190505550610cd2565b676c1ba3ba104b0000600960008473ffffffffffffffffffffffffffffffffffffffff1673ffffffffffffffffffffffffffffffffffffffff16815260200190815260200160002060020154118015610c6357506019600d54105b15610c9657610c7982826106d7600d5487611685565b600d6000815480929190610c8c90612ffb565b9190505550610cd1565b6040517f08c379a0000000000000000000000000000000000000000000000000000000008152600401610cc8906130db565b60405180910390fd5b5b5b5b6000600960008473ffffffffffffffffffffffffffffffffffffffff1673ffffffffffffffffffffffffffffffffffffffff16815260200190815260200160002060020181905550505050565b600181565b60003411610d69576040517f08c379a0000000000000000000000000000000000000000000000000000000008152600401610d609061316d565b60405180910390fd5b6000610d7361166b565b90506000600960008373ffffffffffffffffffffffffffffffffffffffff1673ffffffffffffffffffffffffffffffffffffffff168152602001908152602001600020600201541115610e1e5734600960008373ffffffffffffffffffffffffffffffffffffffff1673ffffffffffffffffffffffffffffffffffffffff1681526020019081526020016000206002016000828254610e12919061318d565b92505081905550610eb2565b604051806060016040528084815260200183815260200134815250600960008373ffffffffffffffffffffffffffffffffffffffff1673ffffffffffffffffffffffffffffffffffffffff1681526020019081526020016000206000820151816000019081610e8d919061336d565b506020820151816001019081610ea3919061336d565b50604082015181600201559050505b7f191b99ecfcd4d573af7bc5ffef79a725d6940eb975a0dc148412cb112a3af29e81848434604051610ee7949392919061343f565b60405180910390a1505050565b600073ffffffffffffffffffffffffffffffffffffffff168273ffffffffffffffffffffffffffffffffffffffff1603610f665760006040517f64a0ae92000000000000000000000000000000000000000000000000000000008152600401610f5d91906129c4565b60405180910390fd5b6000610f7a8383610f7561166b565b6116fc565b90508373ffffffffffffffffffffffffffffffffffffffff168173ffffffffffffffffffffffffffffffffffffffff1614610ff0578382826040517f64283d7b000000000000000000000000000000000000000000000000000000008152600401610fe793929190613492565b60405180910390fd5b50505050565b610ffe611916565b60004711611041576040517f08c379a000000000000000000000000000000000000000000000000000000000815260040161103890613515565b60405180910390fd5b6110496111c7565b73ffffffffffffffffffffffffffffffffffffffff166108fc479081150290604051600060405180830381858888f1935050505015801561108e573d6000803e3d6000fd5b50565b6105dd81565b6101f481565b6110b8838383604051806020016040528060008152506112aa565b505050565b676c1ba3ba104b000081565b6106d781565b60006110da826115a6565b9050919050565b67044d575b885f000081565b600c5481565b60008073ffffffffffffffffffffffffffffffffffffffff168273ffffffffffffffffffffffffffffffffffffffff16036111665760006040517f89c62b6400000000000000000000000000000000000000000000000000000000815260040161115d91906129c4565b60405180910390fd5b600360008373ffffffffffffffffffffffffffffffffffffffff1673ffffffffffffffffffffffffffffffffffffffff168152602001908152602001600020549050919050565b6111b5611916565b6111bf600061199d565b565b600a5481565b6000600760009054906101000a900473ffffffffffffffffffffffffffffffffffffffff16905090565b60606001805461120090612f2f565b80601f016020809104026020016040519081016040528092919081815260200182805461122c90612f2f565b80156112795780601f1061124e57610100808354040283529160200191611279565b820191906000526020600020905b81548152906001019060200180831161125c57829003601f168201915b5050505050905090565b61129561128e61166b565b8383611a63565b5050565b6103e981565b600b5481565b60fa81565b6112b5848484610ef4565b6112c184848484611bd2565b50505050565b6715a63bbc199c000081565b600d5481565b60606112e482611d89565b9050919050565b600960205280600052604060002060009150905080600001805461130e90612f2f565b80601f016020809104026020016040519081016040528092919081815260200182805461133a90612f2f565b80156113875780601f1061135c57610100808354040283529160200191611387565b820191906000526020600020905b81548152906001019060200180831161136a57829003601f168201915b50505050509080600101805461139c90612f2f565b80601f01602080910402602001604051908101604052809291908181526020018280546113c890612f2f565b80156114155780601f106113ea57610100808354040283529160200191611415565b820191906000526020600020905b8154815290600101906020018083116113f857829003601f168201915b5050505050908060020154905083565b6000600560008473ffffffffffffffffffffffffffffffffffffffff1673ffffffffffffffffffffffffffffffffffffffff16815260200190815260200160002060008373ffffffffffffffffffffffffffffffffffffffff1673ffffffffffffffffffffffffffffffffffffffff16815260200190815260200160002060009054906101000a900460ff16905092915050565b6103e881565b6114c7611916565b600073ffffffffffffffffffffffffffffffffffffffff168173ffffffffffffffffffffffffffffffffffffffff16036115395760006040517f1e4fbdf700000000000000000000000000000000000000000000000000000000815260040161153091906129c4565b60405180910390fd5b6115428161199d565b50565b6000634906490660e01b7bffffffffffffffffffffffffffffffffffffffffffffffffffffffff1916827bffffffffffffffffffffffffffffffffffffffffffffffffffffffff1916148061159f575061159e82611e9c565b5b9050919050565b6000806115b283611f7e565b9050600073ffffffffffffffffffffffffffffffffffffffff168173ffffffffffffffffffffffffffffffffffffffff160361162557826040517f7e27328900000000000000000000000000000000000000000000000000000000815260040161161c9190612a5a565b60405180910390fd5b80915050919050565b60006004600083815260200190815260200160002060009054906101000a900473ffffffffffffffffffffffffffffffffffffffff169050919050565b600033905090565b6116808383836001611fbb565b505050565b61169a858385611695919061318d565b612180565b6116af82846116a9919061318d565b8261219e565b7f3bb111f65b6aebb51a630cbfb2249bede82fd02bc082480ef38a9a4ebf1591ae3283856116dd919061318d565b836040516116ed93929190613535565b60405180910390a15050505050565b60008061170884611f7e565b9050600073ffffffffffffffffffffffffffffffffffffffff168373ffffffffffffffffffffffffffffffffffffffff161461174a576117498184866121fa565b5b600073ffffffffffffffffffffffffffffffffffffffff168173ffffffffffffffffffffffffffffffffffffffff16146117db5761178c600085600080611fbb565b6001600360008373ffffffffffffffffffffffffffffffffffffffff1673ffffffffffffffffffffffffffffffffffffffff168152602001908152602001600020600082825403925050819055505b600073ffffffffffffffffffffffffffffffffffffffff168573ffffffffffffffffffffffffffffffffffffffff161461185e576001600360008773ffffffffffffffffffffffffffffffffffffffff1673ffffffffffffffffffffffffffffffffffffffff168152602001908152602001600020600082825401925050819055505b846002600086815260200190815260200160002060006101000a81548173ffffffffffffffffffffffffffffffffffffffff021916908373ffffffffffffffffffffffffffffffffffffffff160217905550838573ffffffffffffffffffffffffffffffffffffffff168273ffffffffffffffffffffffffffffffffffffffff167fddf252ad1be2c89b69c2b068fc378daa952ba7f163c4a11628f55a4df523b3ef60405160405180910390a4809150509392505050565b61191e61166b565b73ffffffffffffffffffffffffffffffffffffffff1661193c6111c7565b73ffffffffffffffffffffffffffffffffffffffff161461199b5761195f61166b565b6040517f118cdaa700000000000000000000000000000000000000000000000000000000815260040161199291906129c4565b60405180910390fd5b565b6000600760009054906101000a900473ffffffffffffffffffffffffffffffffffffffff16905081600760006101000a81548173ffffffffffffffffffffffffffffffffffffffff021916908373ffffffffffffffffffffffffffffffffffffffff1602179055508173ffffffffffffffffffffffffffffffffffffffff168173ffffffffffffffffffffffffffffffffffffffff167f8be0079c531659141344cd1fd0a4f28419497f9722a3daafe3b4186f6b6457e060405160405180910390a35050565b600073ffffffffffffffffffffffffffffffffffffffff168273ffffffffffffffffffffffffffffffffffffffff1603611ad457816040517f5b08ba18000000000000000000000000000000000000000000000000000000008152600401611acb91906129c4565b60405180910390fd5b80600560008573ffffffffffffffffffffffffffffffffffffffff1673ffffffffffffffffffffffffffffffffffffffff16815260200190815260200160002060008473ffffffffffffffffffffffffffffffffffffffff1673ffffffffffffffffffffffffffffffffffffffff16815260200190815260200160002060006101000a81548160ff0219169083151502179055508173ffffffffffffffffffffffffffffffffffffffff168373ffffffffffffffffffffffffffffffffffffffff167f17307eab39ab6107e8899845ad3d59bd9653f200f220920489ca2b5937696c3183604051611bc59190612853565b60405180910390a3505050565b60008373ffffffffffffffffffffffffffffffffffffffff163b1115611d83578273ffffffffffffffffffffffffffffffffffffffff1663150b7a02611c1661166b565b8685856040518563ffffffff1660e01b8152600401611c3894939291906135c8565b6020604051808303816000875af1925050508015611c7457506040513d601f19601f82011682018060405250810190611c719190613629565b60015b611cf8573d8060008114611ca4576040519150601f19603f3d011682016040523d82523d6000602084013e611ca9565b606091505b506000815103611cf057836040517f64a0ae92000000000000000000000000000000000000000000000000000000008152600401611ce791906129c4565b60405180910390fd5b805181602001fd5b63150b7a0260e01b7bffffffffffffffffffffffffffffffffffffffffffffffffffffffff1916817bffffffffffffffffffffffffffffffffffffffffffffffffffffffff191614611d8157836040517f64a0ae92000000000000000000000000000000000000000000000000000000008152600401611d7891906129c4565b60405180910390fd5b505b50505050565b6060611d94826115a6565b506000600660008481526020019081526020016000208054611db590612f2f565b80601f0160208091040260200160405190810160405280929190818152602001828054611de190612f2f565b8015611e2e5780601f10611e0357610100808354040283529160200191611e2e565b820191906000526020600020905b815481529060010190602001808311611e1157829003601f168201915b505050505090506000611e3f6122be565b90506000815103611e54578192505050611e97565b600082511115611e89578082604051602001611e71929190613692565b60405160208183030381529060405292505050611e97565b611e92846122d5565b925050505b919050565b60007f80ac58cd000000000000000000000000000000000000000000000000000000007bffffffffffffffffffffffffffffffffffffffffffffffffffffffff1916827bffffffffffffffffffffffffffffffffffffffffffffffffffffffff19161480611f6757507f5b5e139f000000000000000000000000000000000000000000000000000000007bffffffffffffffffffffffffffffffffffffffffffffffffffffffff1916827bffffffffffffffffffffffffffffffffffffffffffffffffffffffff1916145b80611f775750611f768261233e565b5b9050919050565b60006002600083815260200190815260200160002060009054906101000a900473ffffffffffffffffffffffffffffffffffffffff169050919050565b8080611ff45750600073ffffffffffffffffffffffffffffffffffffffff168273ffffffffffffffffffffffffffffffffffffffff1614155b15612128576000612004846115a6565b9050600073ffffffffffffffffffffffffffffffffffffffff168373ffffffffffffffffffffffffffffffffffffffff161415801561206f57508273ffffffffffffffffffffffffffffffffffffffff168173ffffffffffffffffffffffffffffffffffffffff1614155b801561208257506120808184611425565b155b156120c457826040517fa9fbf51f0000000000000000000000000000000000000000000000000000000081526004016120bb91906129c4565b60405180910390fd5b811561212657838573ffffffffffffffffffffffffffffffffffffffff168273ffffffffffffffffffffffffffffffffffffffff167f8c5be1e5ebec7d5bd14f71427d1e84f3dd0314c0f7b2291e5b200ac8c7c3b92560405160405180910390a45b505b836004600085815260200190815260200160002060006101000a81548173ffffffffffffffffffffffffffffffffffffffff021916908373ffffffffffffffffffffffffffffffffffffffff16021790555050505050565b61219a8282604051806020016040528060008152506123a8565b5050565b806006600084815260200190815260200160002090816121be919061336d565b507ff8e1a15aba9398e019f0b49df1a4fde98ee17ae345cb5f6b5e2c27f5033e8ce7826040516121ee9190612a5a565b60405180910390a15050565b6122058383836123c4565b6122b957600073ffffffffffffffffffffffffffffffffffffffff168373ffffffffffffffffffffffffffffffffffffffff160361227a57806040517f7e2732890000000000000000000000000000000000000000000000000000000081526004016122719190612a5a565b60405180910390fd5b81816040517f177e802f0000000000000000000000000000000000000000000000000000000081526004016122b09291906136b6565b60405180910390fd5b505050565b606060405180602001604052806000815250905090565b60606122e0826115a6565b5060006122eb6122be565b9050600081511161230b5760405180602001604052806000815250612336565b8061231584612485565b604051602001612326929190613692565b6040516020818303038152906040525b915050919050565b60007f01ffc9a7000000000000000000000000000000000000000000000000000000007bffffffffffffffffffffffffffffffffffffffffffffffffffffffff1916827bffffffffffffffffffffffffffffffffffffffffffffffffffffffff1916149050919050565b6123b28383612553565b6123bf6000848484611bd2565b505050565b60008073ffffffffffffffffffffffffffffffffffffffff168373ffffffffffffffffffffffffffffffffffffffff161415801561247c57508273ffffffffffffffffffffffffffffffffffffffff168473ffffffffffffffffffffffffffffffffffffffff16148061243d575061243c8484611425565b5b8061247b57508273ffffffffffffffffffffffffffffffffffffffff166124638361162e565b73ffffffffffffffffffffffffffffffffffffffff16145b5b90509392505050565b6060600060016124948461264c565b01905060008167ffffffffffffffff8111156124b3576124b2612a7f565b5b6040519080825280601f01601f1916602001820160405280156124e55781602001600182028036833780820191505090505b509050600082602001820190505b600115612548578080600190039150507f3031323334353637383961626364656600000000000000000000000000000000600a86061a8153600a858161253c5761253b6136df565b5b049450600085036124f3575b819350505050919050565b600073ffffffffffffffffffffffffffffffffffffffff168273ffffffffffffffffffffffffffffffffffffffff16036125c55760006040517f64a0ae920000000000000000000000000000000000000000000000000000000081526004016125bc91906129c4565b60405180910390fd5b60006125d3838360006116fc565b9050600073ffffffffffffffffffffffffffffffffffffffff168173ffffffffffffffffffffffffffffffffffffffff16146126475760006040517f73c6ac6e00000000000000000000000000000000000000000000000000000000815260040161263e91906129c4565b60405180910390fd5b505050565b600080600090507a184f03e93ff9f4daa797ed6e38ed64bf6a1f01000000000000000083106126aa577a184f03e93ff9f4daa797ed6e38ed64bf6a1f01000000000000000083816126a05761269f6136df565b5b0492506040810190505b6d04ee2d6d415b85acef810000000083106126e7576d04ee2d6d415b85acef810000000083816126dd576126dc6136df565b5b0492506020810190505b662386f26fc10000831061271657662386f26fc10000838161270c5761270b6136df565b5b0492506010810190505b6305f5e100831061273f576305f5e1008381612735576127346136df565b5b0492506008810190505b612710831061276457612710838161275a576127596136df565b5b0492506004810190505b60648310612787576064838161277d5761277c6136df565b5b0492506002810190505b600a8310612796576001810190505b80915050919050565b6000604051905090565b600080fd5b600080fd5b60007fffffffff0000000000000000000000000000000000000000000000000000000082169050919050565b6127e8816127b3565b81146127f357600080fd5b50565b600081359050612805816127df565b92915050565b600060208284031215612821576128206127a9565b5b600061282f848285016127f6565b91505092915050565b60008115159050919050565b61284d81612838565b82525050565b60006020820190506128686000830184612844565b92915050565b600081519050919050565b600082825260208201905092915050565b60005b838110156128a857808201518184015260208101905061288d565b60008484015250505050565b6000601f19601f8301169050919050565b60006128d08261286e565b6128da8185612879565b93506128ea81856020860161288a565b6128f3816128b4565b840191505092915050565b6000602082019050818103600083015261291881846128c5565b905092915050565b6000819050919050565b61293381612920565b811461293e57600080fd5b50565b6000813590506129508161292a565b92915050565b60006020828403121561296c5761296b6127a9565b5b600061297a84828501612941565b91505092915050565b600073ffffffffffffffffffffffffffffffffffffffff82169050919050565b60006129ae82612983565b9050919050565b6129be816129a3565b82525050565b60006020820190506129d960008301846129b5565b92915050565b6129e8816129a3565b81146129f357600080fd5b50565b600081359050612a05816129df565b92915050565b60008060408385031215612a2257612a216127a9565b5b6000612a30858286016129f6565b9250506020612a4185828601612941565b9150509250929050565b612a5481612920565b82525050565b6000602082019050612a6f6000830184612a4b565b92915050565b600080fd5b600080fd5b7f4e487b7100000000000000000000000000000000000000000000000000000000600052604160045260246000fd5b612ab7826128b4565b810181811067ffffffffffffffff82111715612ad657612ad5612a7f565b5b80604052505050565b6000612ae961279f565b9050612af58282612aae565b919050565b600067ffffffffffffffff821115612b1557612b14612a7f565b5b612b1e826128b4565b9050602081019050919050565b82818337600083830152505050565b6000612b4d612b4884612afa565b612adf565b905082815260208101848484011115612b6957612b68612a7a565b5b612b74848285612b2b565b509392505050565b600082601f830112612b9157612b90612a75565b5b8135612ba1848260208601612b3a565b91505092915050565b600060208284031215612bc057612bbf6127a9565b5b600082013567ffffffffffffffff811115612bde57612bdd6127ae565b5b612bea84828501612b7c565b91505092915050565b60008060408385031215612c0a57612c096127a9565b5b600083013567ffffffffffffffff811115612c2857612c276127ae565b5b612c3485828601612b7c565b925050602083013567ffffffffffffffff811115612c5557612c546127ae565b5b612c6185828601612b7c565b9150509250929050565b600080600060608486031215612c8457612c836127a9565b5b6000612c92868287016129f6565b9350506020612ca3868287016129f6565b9250506040612cb486828701612941565b9150509250925092565b600060208284031215612cd457612cd36127a9565b5b6000612ce2848285016129f6565b91505092915050565b612cf481612838565b8114612cff57600080fd5b50565b600081359050612d1181612ceb565b92915050565b60008060408385031215612d2e57612d2d6127a9565b5b6000612d3c858286016129f6565b9250506020612d4d85828601612d02565b9150509250929050565b600067ffffffffffffffff821115612d7257612d71612a7f565b5b612d7b826128b4565b9050602081019050919050565b6000612d9b612d9684612d57565b612adf565b905082815260208101848484011115612db757612db6612a7a565b5b612dc2848285612b2b565b509392505050565b600082601f830112612ddf57612dde612a75565b5b8135612def848260208601612d88565b91505092915050565b60008060008060808587031215612e1257612e116127a9565b5b6000612e20878288016129f6565b9450506020612e31878288016129f6565b9350506040612e4287828801612941565b925050606085013567ffffffffffffffff811115612e6357612e626127ae565b5b612e6f87828801612dca565b91505092959194509250565b60006060820190508181036000830152612e9581866128c5565b90508181036020830152612ea981856128c5565b9050612eb86040830184612a4b565b949350505050565b60008060408385031215612ed757612ed66127a9565b5b6000612ee5858286016129f6565b9250506020612ef6858286016129f6565b9150509250929050565b7f4e487b7100000000000000000000000000000000000000000000000000000000600052602260045260246000fd5b60006002820490506001821680612f4757607f821691505b602082108103612f5a57612f59612f00565b5b50919050565b7f53656e64657220686173206e6f7420646f6e6174656400000000000000000000600082015250565b6000612f96601683612879565b9150612fa182612f60565b602082019050919050565b60006020820190508181036000830152612fc581612f89565b9050919050565b7f4e487b7100000000000000000000000000000000000000000000000000000000600052601160045260246000fd5b600061300682612920565b91507fffffffffffffffffffffffffffffffffffffffffffffffffffffffffffffffff820361303857613037612fcc565b5b600182019050919050565b7f446f6e6174696f6e20616d6f756e7420646f6573206e6f74206d65657420746860008201527f6520726571756972656d656e747320666f7220616e79204e465420747970652060208201527f6f72206d617820737570706c7920726561636865640000000000000000000000604082015250565b60006130c5605583612879565b91506130d082613043565b606082019050919050565b600060208201905081810360008301526130f4816130b8565b9050919050565b7f446f6e6174696f6e20616d6f756e74206d75737420626520677265617465722060008201527f7468616e20300000000000000000000000000000000000000000000000000000602082015250565b6000613157602683612879565b9150613162826130fb565b604082019050919050565b600060208201905081810360008301526131868161314a565b9050919050565b600061319882612920565b91506131a383612920565b92508282019050808211156131bb576131ba612fcc565b5b92915050565b60008190508160005260206000209050919050565b60006020601f8301049050919050565b600082821b905092915050565b6000600883026132237fffffffffffffffffffffffffffffffffffffffffffffffffffffffffffffffff826131e6565b61322d86836131e6565b95508019841693508086168417925050509392505050565b6000819050919050565b600061326a61326561326084612920565b613245565b612920565b9050919050565b6000819050919050565b6132848361324f565b61329861329082613271565b8484546131f3565b825550505050565b600090565b6132ad6132a0565b6132b881848461327b565b505050565b5b818110156132dc576132d16000826132a5565b6001810190506132be565b5050565b601f821115613321576132f2816131c1565b6132fb846131d6565b8101602085101561330a578190505b61331e613316856131d6565b8301826132bd565b50505b505050565b600082821c905092915050565b600061334460001984600802613326565b1980831691505092915050565b600061335d8383613333565b9150826002028217905092915050565b6133768261286e565b67ffffffffffffffff81111561338f5761338e612a7f565b5b6133998254612f2f565b6133a48282856132e0565b600060209050601f8311600181146133d757600084156133c5578287015190505b6133cf8582613351565b865550613437565b601f1984166133e5866131c1565b60005b8281101561340d578489015182556001820191506020850194506020810190506133e8565b8683101561342a5784890151613426601f891682613333565b8355505b6001600288020188555050505b505050505050565b600060808201905061345460008301876129b5565b818103602083015261346681866128c5565b9050818103604083015261347a81856128c5565b90506134896060830184612a4b565b95945050505050565b60006060820190506134a760008301866129b5565b6134b46020830185612a4b565b6134c160408301846129b5565b949350505050565b7f436f6e74726163742062616c616e6365206973207a65726f0000000000000000600082015250565b60006134ff601883612879565b915061350a826134c9565b602082019050919050565b6000602082019050818103600083015261352e816134f2565b9050919050565b600060608201905061354a60008301866129b5565b6135576020830185612a4b565b818103604083015261356981846128c5565b9050949350505050565b600081519050919050565b600082825260208201905092915050565b600061359a82613573565b6135a4818561357e565b93506135b481856020860161288a565b6135bd816128b4565b840191505092915050565b60006080820190506135dd60008301876129b5565b6135ea60208301866129b5565b6135f76040830185612a4b565b8181036060830152613609818461358f565b905095945050505050565b600081519050613623816127df565b92915050565b60006020828403121561363f5761363e6127a9565b5b600061364d84828501613614565b91505092915050565b600081905092915050565b600061366c8261286e565b6136768185613656565b935061368681856020860161288a565b80840191505092915050565b600061369e8285613661565b91506136aa8284613661565b91508190509392505050565b60006040820190506136cb60008301856129b5565b6136d86020830184612a4b565b9392505050565b7f4e487b7100000000000000000000000000000000000000000000000000000000600052601260045260246000fdfea2646970667358221220aa12565b64b8286b6fd65d3dfd8c242e68495402c3bbe4313855cd3e4eb75fef64736f6c63430008180033",
  "linkReferences": {},
  "deployedLinkReferences": {}
}