{
  "_format": "hh-sol-artifact-1",
  "contractName": "HealthCareToken",
  "sourceName": "contracts/HospitalDonationV6.sol",
  "abi": [
    {
      "inputs": [],
      "stateMutability": "nonpayable",
      "type": "constructor"
    },
    {
      "inputs": [
        {
          "internalType": "address",
          "name": "sender",
          "type": "address"
        },
        {
          "internalType": "uint256",
          "name": "tokenId",
          "type": "uint256"
        },
        {
          "internalType": "address",
          "name": "owner",
          "type": "address"
        }
      ],
      "name": "ERC721IncorrectOwner",
      "type": "error"
    },
    {
      "inputs": [
        {
          "internalType": "address",
          "name": "operator",
          "type": "address"
        },
        {
          "internalType": "uint256",
          "name": "tokenId",
          "type": "uint256"
        }
      ],
      "name": "ERC721InsufficientApproval",
      "type": "error"
    },
    {
      "inputs": [
        {
          "internalType": "address",
          "name": "approver",
          "type": "address"
        }
      ],
      "name": "ERC721InvalidApprover",
      "type": "error"
    },
    {
      "inputs": [
        {
          "internalType": "address",
          "name": "operator",
          "type": "address"
        }
      ],
      "name": "ERC721InvalidOperator",
      "type": "error"
    },
    {
      "inputs": [
        {
          "internalType": "address",
          "name": "owner",
          "type": "address"
        }
      ],
      "name": "ERC721InvalidOwner",
      "type": "error"
    },
    {
      "inputs": [
        {
          "internalType": "address",
          "name": "receiver",
          "type": "address"
        }
      ],
      "name": "ERC721InvalidReceiver",
      "type": "error"
    },
    {
      "inputs": [
        {
          "internalType": "address",
          "name": "sender",
          "type": "address"
        }
      ],
      "name": "ERC721InvalidSender",
      "type": "error"
    },
    {
      "inputs": [
        {
          "internalType": "uint256",
          "name": "tokenId",
          "type": "uint256"
        }
      ],
      "name": "ERC721NonexistentToken",
      "type": "error"
    },
    {
      "inputs": [
        {
          "internalType": "address",
          "name": "owner",
          "type": "address"
        }
      ],
      "name": "OwnableInvalidOwner",
      "type": "error"
    },
    {
      "inputs": [
        {
          "internalType": "address",
          "name": "account",
          "type": "address"
        }
      ],
      "name": "OwnableUnauthorizedAccount",
      "type": "error"
    },
    {
      "anonymous": false,
      "inputs": [
        {
          "indexed": true,
          "internalType": "address",
          "name": "owner",
          "type": "address"
        },
        {
          "indexed": true,
          "internalType": "address",
          "name": "approved",
          "type": "address"
        },
        {
          "indexed": true,
          "internalType": "uint256",
          "name": "tokenId",
          "type": "uint256"
        }
      ],
      "name": "Approval",
      "type": "event"
    },
    {
      "anonymous": false,
      "inputs": [
        {
          "indexed": true,
          "internalType": "address",
          "name": "owner",
          "type": "address"
        },
        {
          "indexed": true,
          "internalType": "address",
          "name": "operator",
          "type": "address"
        },
        {
          "indexed": false,
          "internalType": "bool",
          "name": "approved",
          "type": "bool"
        }
      ],
      "name": "ApprovalForAll",
      "type": "event"
    },
    {
      "anonymous": false,
      "inputs": [
        {
          "indexed": false,
          "internalType": "uint256",
          "name": "_fromTokenId",
          "type": "uint256"
        },
        {
          "indexed": false,
          "internalType": "uint256",
          "name": "_toTokenId",
          "type": "uint256"
        }
      ],
      "name": "BatchMetadataUpdate",
      "type": "event"
    },
    {
      "anonymous": false,
      "inputs": [
        {
          "indexed": false,
          "internalType": "address",
          "name": "donor",
          "type": "address"
        },
        {
          "indexed": false,
          "internalType": "string",
          "name": "name",
          "type": "string"
        },
        {
          "indexed": false,
          "internalType": "string",
          "name": "surname",
          "type": "string"
        },
        {
          "indexed": false,
          "internalType": "uint256",
          "name": "amount",
          "type": "uint256"
        }
      ],
      "name": "DonationReceived",
      "type": "event"
    },
    {
      "anonymous": false,
      "inputs": [
        {
          "indexed": false,
          "internalType": "uint256",
          "name": "_tokenId",
          "type": "uint256"
        }
      ],
      "name": "MetadataUpdate",
      "type": "event"
    },
    {
      "anonymous": false,
      "inputs": [
        {
          "indexed": false,
          "internalType": "address",
          "name": "donor",
          "type": "address"
        },
        {
          "indexed": false,
          "internalType": "uint256",
          "name": "tokenId",
          "type": "uint256"
        },
        {
          "indexed": false,
          "internalType": "string",
          "name": "ipfsHash",
          "type": "string"
        }
      ],
      "name": "NFTClaimed",
      "type": "event"
    },
    {
      "anonymous": false,
      "inputs": [
        {
          "indexed": true,
          "internalType": "address",
          "name": "previousOwner",
          "type": "address"
        },
        {
          "indexed": true,
          "internalType": "address",
          "name": "newOwner",
          "type": "address"
        }
      ],
      "name": "OwnershipTransferred",
      "type": "event"
    },
    {
      "anonymous": false,
      "inputs": [
        {
          "indexed": true,
          "internalType": "address",
          "name": "from",
          "type": "address"
        },
        {
          "indexed": true,
          "internalType": "address",
          "name": "to",
          "type": "address"
        },
        {
          "indexed": true,
          "internalType": "uint256",
          "name": "tokenId",
          "type": "uint256"
        }
      ],
      "name": "Transfer",
      "type": "event"
    },
    {
      "inputs": [],
      "name": "BRONZE_MAX_SUPPLY",
      "outputs": [
        {
          "internalType": "uint256",
          "name": "",
          "type": "uint256"
        }
      ],
      "stateMutability": "view",
      "type": "function"
    },
    {
      "inputs": [],
      "name": "BRONZE_START_ID",
      "outputs": [
        {
          "internalType": "uint256",
          "name": "",
          "type": "uint256"
        }
      ],
      "stateMutability": "view",
      "type": "function"
    },
    {
      "inputs": [],
      "name": "BRONZE_THRESHOLD",
      "outputs": [
        {
          "internalType": "uint256",
          "name": "",
          "type": "uint256"
        }
      ],
      "stateMutability": "view",
      "type": "function"
    },
    {
      "inputs": [],
      "name": "GOLD_MAX_SUPPLY",
      "outputs": [
        {
          "internalType": "uint256",
          "name": "",
          "type": "uint256"
        }
      ],
      "stateMutability": "view",
      "type": "function"
    },
    {
      "inputs": [],
      "name": "GOLD_START_ID",
      "outputs": [
        {
          "internalType": "uint256",
          "name": "",
          "type": "uint256"
        }
      ],
      "stateMutability": "view",
      "type": "function"
    },
    {
      "inputs": [],
      "name": "GOLD_THRESHOLD",
      "outputs": [
        {
          "internalType": "uint256",
          "name": "",
          "type": "uint256"
        }
      ],
      "stateMutability": "view",
      "type": "function"
    },
    {
      "inputs": [],
      "name": "PLATINUM_MAX_SUPPLY",
      "outputs": [
        {
          "internalType": "uint256",
          "name": "",
          "type": "uint256"
        }
      ],
      "stateMutability": "view",
      "type": "function"
    },
    {
      "inputs": [],
      "name": "PLATINUM_START_ID",
      "outputs": [
        {
          "internalType": "uint256",
          "name": "",
          "type": "uint256"
        }
      ],
      "stateMutability": "view",
      "type": "function"
    },
    {
      "inputs": [],
      "name": "SILVER_MAX_SUPPLY",
      "outputs": [
        {
          "internalType": "uint256",
          "name": "",
          "type": "uint256"
        }
      ],
      "stateMutability": "view",
      "type": "function"
    },
    {
      "inputs": [],
      "name": "SILVER_START_ID",
      "outputs": [
        {
          "internalType": "uint256",
          "name": "",
          "type": "uint256"
        }
      ],
      "stateMutability": "view",
      "type": "function"
    },
    {
      "inputs": [],
      "name": "SILVER_THRESHOLD",
      "outputs": [
        {
          "internalType": "uint256",
          "name": "",
          "type": "uint256"
        }
      ],
      "stateMutability": "view",
      "type": "function"
    },
    {
      "inputs": [
        {
          "internalType": "address",
          "name": "to",
          "type": "address"
        },
        {
          "internalType": "uint256",
          "name": "tokenId",
          "type": "uint256"
        }
      ],
      "name": "approve",
      "outputs": [],
      "stateMutability": "nonpayable",
      "type": "function"
    },
    {
      "inputs": [
        {
          "internalType": "address",
          "name": "owner",
          "type": "address"
        }
      ],
      "name": "balanceOf",
      "outputs": [
        {
          "internalType": "uint256",
          "name": "",
          "type": "uint256"
        }
      ],
      "stateMutability": "view",
      "type": "function"
    },
    {
      "inputs": [],
      "name": "bronzeSupply",
      "outputs": [
        {
          "internalType": "uint256",
          "name": "",
          "type": "uint256"
        }
      ],
      "stateMutability": "view",
      "type": "function"
    },
    {
      "inputs": [
        {
          "internalType": "string",
          "name": "_ipfsHash",
          "type": "string"
        }
      ],
      "name": "claimNFT",
      "outputs": [],
      "stateMutability": "nonpayable",
      "type": "function"
    },
    {
      "inputs": [
        {
          "internalType": "string",
          "name": "_name",
          "type": "string"
        },
        {
          "internalType": "string",
          "name": "_surname",
          "type": "string"
        }
      ],
      "name": "donate",
      "outputs": [],
      "stateMutability": "payable",
      "type": "function"
    },
    {
      "inputs": [
        {
          "internalType": "address",
          "name": "",
          "type": "address"
        }
      ],
      "name": "donations",
      "outputs": [
        {
          "internalType": "string",
          "name": "name",
          "type": "string"
        },
        {
          "internalType": "string",
          "name": "surname",
          "type": "string"
        },
        {
          "internalType": "uint256",
          "name": "amount",
          "type": "uint256"
        }
      ],
      "stateMutability": "view",
      "type": "function"
    },
    {
      "inputs": [
        {
          "internalType": "uint256",
          "name": "tokenId",
          "type": "uint256"
        }
      ],
      "name": "getApproved",
      "outputs": [
        {
          "internalType": "address",
          "name": "",
          "type": "address"
        }
      ],
      "stateMutability": "view",
      "type": "function"
    },
    {
      "inputs": [],
      "name": "goldSupply",
      "outputs": [
        {
          "internalType": "uint256",
          "name": "",
          "type": "uint256"
        }
      ],
      "stateMutability": "view",
      "type": "function"
    },
    {
      "inputs": [
        {
          "internalType": "address",
          "name": "owner",
          "type": "address"
        },
        {
          "internalType": "address",
          "name": "operator",
          "type": "address"
        }
      ],
      "name": "isApprovedForAll",
      "outputs": [
        {
          "internalType": "bool",
          "name": "",
          "type": "bool"
        }
      ],
      "stateMutability": "view",
      "type": "function"
    },
    {
      "inputs": [],
      "name": "name",
      "outputs": [
        {
          "internalType": "string",
          "name": "",
          "type": "string"
        }
      ],
      "stateMutability": "view",
      "type": "function"
    },
    {
      "inputs": [],
      "name": "owner",
      "outputs": [
        {
          "internalType": "address",
          "name": "",
          "type": "address"
        }
      ],
      "stateMutability": "view",
      "type": "function"
    },
    {
      "inputs": [
        {
          "internalType": "uint256",
          "name": "tokenId",
          "type": "uint256"
        }
      ],
      "name": "ownerOf",
      "outputs": [
        {
          "internalType": "address",
          "name": "",
          "type": "address"
        }
      ],
      "stateMutability": "view",
      "type": "function"
    },
    {
      "inputs": [],
      "name": "platinumSupply",
      "outputs": [
        {
          "internalType": "uint256",
          "name": "",
          "type": "uint256"
        }
      ],
      "stateMutability": "view",
      "type": "function"
    },
    {
      "inputs": [],
      "name": "renounceOwnership",
      "outputs": [],
      "stateMutability": "nonpayable",
      "type": "function"
    },
    {
      "inputs": [
        {
          "internalType": "address",
          "name": "from",
          "type": "address"
        },
        {
          "internalType": "address",
          "name": "to",
          "type": "address"
        },
        {
          "internalType": "uint256",
          "name": "tokenId",
          "type": "uint256"
        }
      ],
      "name": "safeTransferFrom",
      "outputs": [],
      "stateMutability": "nonpayable",
      "type": "function"
    },
    {
      "inputs": [
        {
          "internalType": "address",
          "name": "from",
          "type": "address"
        },
        {
          "internalType": "address",
          "name": "to",
          "type": "address"
        },
        {
          "internalType": "uint256",
          "name": "tokenId",
          "type": "uint256"
        },
        {
          "internalType": "bytes",
          "name": "data",
          "type": "bytes"
        }
      ],
      "name": "safeTransferFrom",
      "outputs": [],
      "stateMutability": "nonpayable",
      "type": "function"
    },
    {
      "inputs": [
        {
          "internalType": "address",
          "name": "operator",
          "type": "address"
        },
        {
          "internalType": "bool",
          "name": "approved",
          "type": "bool"
        }
      ],
      "name": "setApprovalForAll",
      "outputs": [],
      "stateMutability": "nonpayable",
      "type": "function"
    },
    {
      "inputs": [],
      "name": "silverSupply",
      "outputs": [
        {
          "internalType": "uint256",
          "name": "",
          "type": "uint256"
        }
      ],
      "stateMutability": "view",
      "type": "function"
    },
    {
      "inputs": [
        {
          "internalType": "bytes4",
          "name": "interfaceId",
          "type": "bytes4"
        }
      ],
      "name": "supportsInterface",
      "outputs": [
        {
          "internalType": "bool",
          "name": "",
          "type": "bool"
        }
      ],
      "stateMutability": "view",
      "type": "function"
    },
    {
      "inputs": [],
      "name": "symbol",
      "outputs": [
        {
          "internalType": "string",
          "name": "",
          "type": "string"
        }
      ],
      "stateMutability": "view",
      "type": "function"
    },
    {
      "inputs": [
        {
          "internalType": "uint256",
          "name": "tokenId",
          "type": "uint256"
        }
      ],
      "name": "tokenURI",
      "outputs": [
        {
          "internalType": "string",
          "name": "",
          "type": "string"
        }
      ],
      "stateMutability": "view",
      "type": "function"
    },
    {
      "inputs": [
        {
          "internalType": "address",
          "name": "from",
          "type": "address"
        },
        {
          "internalType": "address",
          "name": "to",
          "type": "address"
        },
        {
          "internalType": "uint256",
          "name": "tokenId",
          "type": "uint256"
        }
      ],
      "name": "transferFrom",
      "outputs": [],
      "stateMutability": "nonpayable",
      "type": "function"
    },
    {
      "inputs": [
        {
          "internalType": "address",
          "name": "newOwner",
          "type": "address"
        }
      ],
      "name": "transferOwnership",
      "outputs": [],
      "stateMutability": "nonpayable",
      "type": "function"
    },
    {
      "inputs": [],
      "name": "withdrawFunds",
      "outputs": [],
      "stateMutability": "nonpayable",
      "type": "function"
    }
  ],
  "bytecode": "0x60806040523480156200001157600080fd5b50336040518060400160405280601181526020017f4865616c7468204361726520546f6b656e0000000000000000000000000000008152506040518060400160405280600381526020017f4843540000000000000000000000000000000000000000000000000000000000815250816000908162000090919062000472565b508060019081620000a2919062000472565b505050600073ffffffffffffffffffffffffffffffffffffffff168173ffffffffffffffffffffffffffffffffffffffff16036200011a5760006040517f1e4fbdf70000000000000000000000000000000000000000000000000000000081526004016200011191906200059e565b60405180910390fd5b6200012b816200013260201b60201c565b50620005bb565b6000600760009054906101000a900473ffffffffffffffffffffffffffffffffffffffff16905081600760006101000a81548173ffffffffffffffffffffffffffffffffffffffff021916908373ffffffffffffffffffffffffffffffffffffffff1602179055508173ffffffffffffffffffffffffffffffffffffffff168173ffffffffffffffffffffffffffffffffffffffff167f8be0079c531659141344cd1fd0a4f28419497f9722a3daafe3b4186f6b6457e060405160405180910390a35050565b600081519050919050565b7f4e487b7100000000000000000000000000000000000000000000000000000000600052604160045260246000fd5b7f4e487b7100000000000000000000000000000000000000000000000000000000600052602260045260246000fd5b600060028204905060018216806200027a57607f821691505b60208210810362000290576200028f62000232565b5b50919050565b60008190508160005260206000209050919050565b60006020601f8301049050919050565b600082821b905092915050565b600060088302620002fa7fffffffffffffffffffffffffffffffffffffffffffffffffffffffffffffffff82620002bb565b620003068683620002bb565b95508019841693508086168417925050509392505050565b6000819050919050565b6000819050919050565b6000620003536200034d62000347846200031e565b62000328565b6200031e565b9050919050565b6000819050919050565b6200036f8362000332565b620003876200037e826200035a565b848454620002c8565b825550505050565b600090565b6200039e6200038f565b620003ab81848462000364565b505050565b5b81811015620003d357620003c760008262000394565b600181019050620003b1565b5050565b601f8211156200042257620003ec8162000296565b620003f784620002ab565b8101602085101562000407578190505b6200041f6200041685620002ab565b830182620003b0565b50505b505050565b600082821c905092915050565b6000620004476000198460080262000427565b1980831691505092915050565b600062000462838362000434565b9150826002028217905092915050565b6200047d82620001f8565b67ffffffffffffffff81111562000499576200049862000203565b5b620004a5825462000261565b620004b2828285620003d7565b600060209050601f831160018114620004ea5760008415620004d5578287015190505b620004e1858262000454565b86555062000551565b601f198416620004fa8662000296565b60005b828110156200052457848901518255600182019150602085019450602081019050620004fd565b8683101562000544578489015162000540601f89168262000434565b8355505b6001600288020188555050505b505050505050565b600073ffffffffffffffffffffffffffffffffffffffff82169050919050565b6000620005868262000559565b9050919050565b620005988162000579565b82525050565b6000602082019050620005b560008301846200058d565b92915050565b61373980620005cb6000396000f3fe6080604052600436106102045760003560e01c80636edf154911610118578063af21a628116100a0578063c87b56dd1161006f578063c87b56dd14610718578063cc6cb19a14610755578063e985e9c514610794578063f0e78dd5146107d1578063f2fde38b146107fc57610204565b8063af21a6281461066e578063b88d4fde14610699578063c1a0db30146106c2578063c4d05a95146106ed57610204565b80638da5cb5b116100e75780638da5cb5b1461059957806395d89b41146105c4578063a22cb465146105ef578063a6e59a3114610618578063ac0a48651461064357610204565b80636edf1549146104ef57806370a082311461051a578063715018a6146105575780638c7f44be1461056e57610204565b806323b872dd1161019b57806342842e0e1161016a57806342842e0e14610408578063569739741461043157806358d072671461045c5780636352211e1461048757806369a2f026146104c457610204565b806323b872dd1461037257806324600fc31461039b578063371aee01146103b25780633abb9f91146103dd57610204565b80630bd18a17116101d75780630bd18a17146102d7578063117207561461030257806315d6f2ce1461032b5780631653441c1461035657610204565b806301ffc9a71461020957806306fdde0314610246578063081812fc14610271578063095ea7b3146102ae575b600080fd5b34801561021557600080fd5b50610230600480360381019061022b9190612800565b610825565b60405161023d9190612848565b60405180910390f35b34801561025257600080fd5b5061025b610837565b60405161026891906128f3565b60405180910390f35b34801561027d57600080fd5b506102986004803603810190610293919061294b565b6108c9565b6040516102a591906129b9565b60405180910390f35b3480156102ba57600080fd5b506102d560048036038101906102d09190612a00565b6108e5565b005b3480156102e357600080fd5b506102ec6108fb565b6040516102f99190612a4f565b60405180910390f35b34801561030e57600080fd5b5061032960048036038101906103249190612b9f565b610900565b005b34801561033757600080fd5b50610340610d5c565b60405161034d9190612a4f565b60405180910390f35b610370600480360381019061036b9190612be8565b610d61565b005b34801561037e57600080fd5b5061039960048036038101906103949190612c60565b610f2f565b005b3480156103a757600080fd5b506103b0611031565b005b3480156103be57600080fd5b506103c76110cc565b6040516103d49190612a4f565b60405180910390f35b3480156103e957600080fd5b506103f26110d2565b6040516103ff9190612a4f565b60405180910390f35b34801561041457600080fd5b5061042f600480360381019061042a9190612c60565b6110d8565b005b34801561043d57600080fd5b506104466110f8565b6040516104539190612a4f565b60405180910390f35b34801561046857600080fd5b50610471611104565b60405161047e9190612a4f565b60405180910390f35b34801561049357600080fd5b506104ae60048036038101906104a9919061294b565b61110a565b6040516104bb91906129b9565b60405180910390f35b3480156104d057600080fd5b506104d961111c565b6040516104e69190612a4f565b60405180910390f35b3480156104fb57600080fd5b50610504611128565b6040516105119190612a4f565b60405180910390f35b34801561052657600080fd5b50610541600480360381019061053c9190612cb3565b61112e565b60405161054e9190612a4f565b60405180910390f35b34801561056357600080fd5b5061056c6111e8565b005b34801561057a57600080fd5b506105836111fc565b6040516105909190612a4f565b60405180910390f35b3480156105a557600080fd5b506105ae611202565b6040516105bb91906129b9565b60405180910390f35b3480156105d057600080fd5b506105d961122c565b6040516105e691906128f3565b60405180910390f35b3480156105fb57600080fd5b5061061660048036038101906106119190612d0c565b6112be565b005b34801561062457600080fd5b5061062d6112d4565b60405161063a9190612a4f565b60405180910390f35b34801561064f57600080fd5b506106586112da565b6040516106659190612a4f565b60405180910390f35b34801561067a57600080fd5b506106836112e0565b6040516106909190612a4f565b60405180910390f35b3480156106a557600080fd5b506106c060048036038101906106bb9190612ded565b6112e5565b005b3480156106ce57600080fd5b506106d7611302565b6040516106e49190612a4f565b60405180910390f35b3480156106f957600080fd5b5061070261130e565b60405161070f9190612a4f565b60405180910390f35b34801561072457600080fd5b5061073f600480360381019061073a919061294b565b611314565b60405161074c91906128f3565b60405180910390f35b34801561076157600080fd5b5061077c60048036038101906107779190612cb3565b611326565b60405161078b93929190612e70565b60405180910390f35b3480156107a057600080fd5b506107bb60048036038101906107b69190612eb5565b611460565b6040516107c89190612848565b60405180910390f35b3480156107dd57600080fd5b506107e66114f4565b6040516107f39190612a4f565b60405180910390f35b34801561080857600080fd5b50610823600480360381019061081e9190612cb3565b6114fa565b005b600061083082611580565b9050919050565b60606000805461084690612f24565b80601f016020809104026020016040519081016040528092919081815260200182805461087290612f24565b80156108bf5780601f10610894576101008083540402835291602001916108bf565b820191906000526020600020905b8154815290600101906020018083116108a257829003601f168201915b5050505050905090565b60006108d4826115e1565b506108de82611669565b9050919050565b6108f782826108f26116a6565b6116ae565b5050565b601981565b600061090a6116a6565b90506000600960008373ffffffffffffffffffffffffffffffffffffffff1673ffffffffffffffffffffffffffffffffffffffff1681526020019081526020016000206002015411610991576040517f08c379a000000000000000000000000000000000000000000000000000000000815260040161098890612fa1565b60405180910390fd5b60006008549050600860008154809291906109ab90612ff0565b919050555067044d575b885f0000600960008473ffffffffffffffffffffffffffffffffffffffff1673ffffffffffffffffffffffffffffffffffffffff1681526020019081526020016000206002015411158015610a0d57506103e8600a54105b15610a3f57610a2282826001600a54876116c0565b600a6000815480929190610a3590612ff0565b9190505550610cd4565b67044d575b885f0000600960008473ffffffffffffffffffffffffffffffffffffffff1673ffffffffffffffffffffffffffffffffffffffff16815260200190815260200160002060020154118015610ae257506715a63bbc199c0000600960008473ffffffffffffffffffffffffffffffffffffffff1673ffffffffffffffffffffffffffffffffffffffff1681526020019081526020016000206002015411155b8015610af157506101f4600b54105b15610b2457610b0782826103e9600b54876116c0565b600b6000815480929190610b1a90612ff0565b9190505550610cd3565b6715a63bbc199c0000600960008473ffffffffffffffffffffffffffffffffffffffff1673ffffffffffffffffffffffffffffffffffffffff16815260200190815260200160002060020154118015610bc75750676c1ba3ba104b0000600960008473ffffffffffffffffffffffffffffffffffffffff1673ffffffffffffffffffffffffffffffffffffffff1681526020019081526020016000206002015411155b8015610bd5575060fa600c54105b15610c0857610beb82826105dd600c54876116c0565b600c6000815480929190610bfe90612ff0565b9190505550610cd2565b676c1ba3ba104b0000600960008473ffffffffffffffffffffffffffffffffffffffff1673ffffffffffffffffffffffffffffffffffffffff16815260200190815260200160002060020154118015610c6357506019600d54105b15610c9657610c7982826106d7600d54876116c0565b600d6000815480929190610c8c90612ff0565b9190505550610cd1565b6040517f08c379a0000000000000000000000000000000000000000000000000000000008152600401610cc8906130d0565b60405180910390fd5b5b5b5b7f3bb111f65b6aebb51a630cbfb2249bede82fd02bc082480ef38a9a4ebf1591ae828285604051610d07939291906130f0565b60405180910390a16000600960008473ffffffffffffffffffffffffffffffffffffffff1673ffffffffffffffffffffffffffffffffffffffff16815260200190815260200160002060020181905550505050565b600181565b60003411610da4576040517f08c379a0000000000000000000000000000000000000000000000000000000008152600401610d9b906131a0565b60405180910390fd5b6000610dae6116a6565b90506000600960008373ffffffffffffffffffffffffffffffffffffffff1673ffffffffffffffffffffffffffffffffffffffff168152602001908152602001600020600201541115610e595734600960008373ffffffffffffffffffffffffffffffffffffffff1673ffffffffffffffffffffffffffffffffffffffff1681526020019081526020016000206002016000828254610e4d91906131c0565b92505081905550610eed565b604051806060016040528084815260200183815260200134815250600960008373ffffffffffffffffffffffffffffffffffffffff1673ffffffffffffffffffffffffffffffffffffffff1681526020019081526020016000206000820151816000019081610ec891906133a0565b506020820151816001019081610ede91906133a0565b50604082015181600201559050505b7f191b99ecfcd4d573af7bc5ffef79a725d6940eb975a0dc148412cb112a3af29e81848434604051610f229493929190613472565b60405180910390a1505050565b600073ffffffffffffffffffffffffffffffffffffffff168273ffffffffffffffffffffffffffffffffffffffff1603610fa15760006040517f64a0ae92000000000000000000000000000000000000000000000000000000008152600401610f9891906129b9565b60405180910390fd5b6000610fb58383610fb06116a6565b6116f1565b90508373ffffffffffffffffffffffffffffffffffffffff168173ffffffffffffffffffffffffffffffffffffffff161461102b578382826040517f64283d7b000000000000000000000000000000000000000000000000000000008152600401611022939291906134c5565b60405180910390fd5b50505050565b61103961190b565b6000471161107c576040517f08c379a000000000000000000000000000000000000000000000000000000000815260040161107390613548565b60405180910390fd5b611084611202565b73ffffffffffffffffffffffffffffffffffffffff166108fc479081150290604051600060405180830381858888f193505050501580156110c9573d6000803e3d6000fd5b50565b6105dd81565b6101f481565b6110f3838383604051806020016040528060008152506112e5565b505050565b676c1ba3ba104b000081565b6106d781565b6000611115826115e1565b9050919050565b67044d575b885f000081565b600c5481565b60008073ffffffffffffffffffffffffffffffffffffffff168273ffffffffffffffffffffffffffffffffffffffff16036111a15760006040517f89c62b6400000000000000000000000000000000000000000000000000000000815260040161119891906129b9565b60405180910390fd5b600360008373ffffffffffffffffffffffffffffffffffffffff1673ffffffffffffffffffffffffffffffffffffffff168152602001908152602001600020549050919050565b6111f061190b565b6111fa6000611992565b565b600a5481565b6000600760009054906101000a900473ffffffffffffffffffffffffffffffffffffffff16905090565b60606001805461123b90612f24565b80601f016020809104026020016040519081016040528092919081815260200182805461126790612f24565b80156112b45780601f10611289576101008083540402835291602001916112b4565b820191906000526020600020905b81548152906001019060200180831161129757829003601f168201915b5050505050905090565b6112d06112c96116a6565b8383611a58565b5050565b6103e981565b600b5481565b60fa81565b6112f0848484610f2f565b6112fc84848484611bc7565b50505050565b6715a63bbc199c000081565b600d5481565b606061131f82611d7e565b9050919050565b600960205280600052604060002060009150905080600001805461134990612f24565b80601f016020809104026020016040519081016040528092919081815260200182805461137590612f24565b80156113c25780601f10611397576101008083540402835291602001916113c2565b820191906000526020600020905b8154815290600101906020018083116113a557829003601f168201915b5050505050908060010180546113d790612f24565b80601f016020809104026020016040519081016040528092919081815260200182805461140390612f24565b80156114505780601f1061142557610100808354040283529160200191611450565b820191906000526020600020905b81548152906001019060200180831161143357829003601f168201915b5050505050908060020154905083565b6000600560008473ffffffffffffffffffffffffffffffffffffffff1673ffffffffffffffffffffffffffffffffffffffff16815260200190815260200160002060008373ffffffffffffffffffffffffffffffffffffffff1673ffffffffffffffffffffffffffffffffffffffff16815260200190815260200160002060009054906101000a900460ff16905092915050565b6103e881565b61150261190b565b600073ffffffffffffffffffffffffffffffffffffffff168173ffffffffffffffffffffffffffffffffffffffff16036115745760006040517f1e4fbdf700000000000000000000000000000000000000000000000000000000815260040161156b91906129b9565b60405180910390fd5b61157d81611992565b50565b6000634906490660e01b7bffffffffffffffffffffffffffffffffffffffffffffffffffffffff1916827bffffffffffffffffffffffffffffffffffffffffffffffffffffffff191614806115da57506115d982611e91565b5b9050919050565b6000806115ed83611f73565b9050600073ffffffffffffffffffffffffffffffffffffffff168173ffffffffffffffffffffffffffffffffffffffff160361166057826040517f7e2732890000000000000000000000000000000000000000000000000000000081526004016116579190612a4f565b60405180910390fd5b80915050919050565b60006004600083815260200190815260200160002060009054906101000a900473ffffffffffffffffffffffffffffffffffffffff169050919050565b600033905090565b6116bb8383836001611fb0565b505050565b6116d58583856116d091906131c0565b612175565b6116ea82846116e491906131c0565b82612193565b5050505050565b6000806116fd84611f73565b9050600073ffffffffffffffffffffffffffffffffffffffff168373ffffffffffffffffffffffffffffffffffffffff161461173f5761173e8184866121ef565b5b600073ffffffffffffffffffffffffffffffffffffffff168173ffffffffffffffffffffffffffffffffffffffff16146117d057611781600085600080611fb0565b6001600360008373ffffffffffffffffffffffffffffffffffffffff1673ffffffffffffffffffffffffffffffffffffffff168152602001908152602001600020600082825403925050819055505b600073ffffffffffffffffffffffffffffffffffffffff168573ffffffffffffffffffffffffffffffffffffffff1614611853576001600360008773ffffffffffffffffffffffffffffffffffffffff1673ffffffffffffffffffffffffffffffffffffffff168152602001908152602001600020600082825401925050819055505b846002600086815260200190815260200160002060006101000a81548173ffffffffffffffffffffffffffffffffffffffff021916908373ffffffffffffffffffffffffffffffffffffffff160217905550838573ffffffffffffffffffffffffffffffffffffffff168273ffffffffffffffffffffffffffffffffffffffff167fddf252ad1be2c89b69c2b068fc378daa952ba7f163c4a11628f55a4df523b3ef60405160405180910390a4809150509392505050565b6119136116a6565b73ffffffffffffffffffffffffffffffffffffffff16611931611202565b73ffffffffffffffffffffffffffffffffffffffff1614611990576119546116a6565b6040517f118cdaa700000000000000000000000000000000000000000000000000000000815260040161198791906129b9565b60405180910390fd5b565b6000600760009054906101000a900473ffffffffffffffffffffffffffffffffffffffff16905081600760006101000a81548173ffffffffffffffffffffffffffffffffffffffff021916908373ffffffffffffffffffffffffffffffffffffffff1602179055508173ffffffffffffffffffffffffffffffffffffffff168173ffffffffffffffffffffffffffffffffffffffff167f8be0079c531659141344cd1fd0a4f28419497f9722a3daafe3b4186f6b6457e060405160405180910390a35050565b600073ffffffffffffffffffffffffffffffffffffffff168273ffffffffffffffffffffffffffffffffffffffff1603611ac957816040517f5b08ba18000000000000000000000000000000000000000000000000000000008152600401611ac091906129b9565b60405180910390fd5b80600560008573ffffffffffffffffffffffffffffffffffffffff1673ffffffffffffffffffffffffffffffffffffffff16815260200190815260200160002060008473ffffffffffffffffffffffffffffffffffffffff1673ffffffffffffffffffffffffffffffffffffffff16815260200190815260200160002060006101000a81548160ff0219169083151502179055508173ffffffffffffffffffffffffffffffffffffffff168373ffffffffffffffffffffffffffffffffffffffff167f17307eab39ab6107e8899845ad3d59bd9653f200f220920489ca2b5937696c3183604051611bba9190612848565b60405180910390a3505050565b60008373ffffffffffffffffffffffffffffffffffffffff163b1115611d78578273ffffffffffffffffffffffffffffffffffffffff1663150b7a02611c0b6116a6565b8685856040518563ffffffff1660e01b8152600401611c2d94939291906135bd565b6020604051808303816000875af1925050508015611c6957506040513d601f19601f82011682018060405250810190611c66919061361e565b60015b611ced573d8060008114611c99576040519150601f19603f3d011682016040523d82523d6000602084013e611c9e565b606091505b506000815103611ce557836040517f64a0ae92000000000000000000000000000000000000000000000000000000008152600401611cdc91906129b9565b60405180910390fd5b805181602001fd5b63150b7a0260e01b7bffffffffffffffffffffffffffffffffffffffffffffffffffffffff1916817bffffffffffffffffffffffffffffffffffffffffffffffffffffffff191614611d7657836040517f64a0ae92000000000000000000000000000000000000000000000000000000008152600401611d6d91906129b9565b60405180910390fd5b505b50505050565b6060611d89826115e1565b506000600660008481526020019081526020016000208054611daa90612f24565b80601f0160208091040260200160405190810160405280929190818152602001828054611dd690612f24565b8015611e235780601f10611df857610100808354040283529160200191611e23565b820191906000526020600020905b815481529060010190602001808311611e0657829003601f168201915b505050505090506000611e346122b3565b90506000815103611e49578192505050611e8c565b600082511115611e7e578082604051602001611e66929190613687565b60405160208183030381529060405292505050611e8c565b611e87846122ca565b925050505b919050565b60007f80ac58cd000000000000000000000000000000000000000000000000000000007bffffffffffffffffffffffffffffffffffffffffffffffffffffffff1916827bffffffffffffffffffffffffffffffffffffffffffffffffffffffff19161480611f5c57507f5b5e139f000000000000000000000000000000000000000000000000000000007bffffffffffffffffffffffffffffffffffffffffffffffffffffffff1916827bffffffffffffffffffffffffffffffffffffffffffffffffffffffff1916145b80611f6c5750611f6b82612333565b5b9050919050565b60006002600083815260200190815260200160002060009054906101000a900473ffffffffffffffffffffffffffffffffffffffff169050919050565b8080611fe95750600073ffffffffffffffffffffffffffffffffffffffff168273ffffffffffffffffffffffffffffffffffffffff1614155b1561211d576000611ff9846115e1565b9050600073ffffffffffffffffffffffffffffffffffffffff168373ffffffffffffffffffffffffffffffffffffffff161415801561206457508273ffffffffffffffffffffffffffffffffffffffff168173ffffffffffffffffffffffffffffffffffffffff1614155b801561207757506120758184611460565b155b156120b957826040517fa9fbf51f0000000000000000000000000000000000000000000000000000000081526004016120b091906129b9565b60405180910390fd5b811561211b57838573ffffffffffffffffffffffffffffffffffffffff168273ffffffffffffffffffffffffffffffffffffffff167f8c5be1e5ebec7d5bd14f71427d1e84f3dd0314c0f7b2291e5b200ac8c7c3b92560405160405180910390a45b505b836004600085815260200190815260200160002060006101000a81548173ffffffffffffffffffffffffffffffffffffffff021916908373ffffffffffffffffffffffffffffffffffffffff16021790555050505050565b61218f82826040518060200160405280600081525061239d565b5050565b806006600084815260200190815260200160002090816121b391906133a0565b507ff8e1a15aba9398e019f0b49df1a4fde98ee17ae345cb5f6b5e2c27f5033e8ce7826040516121e39190612a4f565b60405180910390a15050565b6121fa8383836123b9565b6122ae57600073ffffffffffffffffffffffffffffffffffffffff168373ffffffffffffffffffffffffffffffffffffffff160361226f57806040517f7e2732890000000000000000000000000000000000000000000000000000000081526004016122669190612a4f565b60405180910390fd5b81816040517f177e802f0000000000000000000000000000000000000000000000000000000081526004016122a59291906136ab565b60405180910390fd5b505050565b606060405180602001604052806000815250905090565b60606122d5826115e1565b5060006122e06122b3565b90506000815111612300576040518060200160405280600081525061232b565b8061230a8461247a565b60405160200161231b929190613687565b6040516020818303038152906040525b915050919050565b60007f01ffc9a7000000000000000000000000000000000000000000000000000000007bffffffffffffffffffffffffffffffffffffffffffffffffffffffff1916827bffffffffffffffffffffffffffffffffffffffffffffffffffffffff1916149050919050565b6123a78383612548565b6123b46000848484611bc7565b505050565b60008073ffffffffffffffffffffffffffffffffffffffff168373ffffffffffffffffffffffffffffffffffffffff161415801561247157508273ffffffffffffffffffffffffffffffffffffffff168473ffffffffffffffffffffffffffffffffffffffff16148061243257506124318484611460565b5b8061247057508273ffffffffffffffffffffffffffffffffffffffff1661245883611669565b73ffffffffffffffffffffffffffffffffffffffff16145b5b90509392505050565b60606000600161248984612641565b01905060008167ffffffffffffffff8111156124a8576124a7612a74565b5b6040519080825280601f01601f1916602001820160405280156124da5781602001600182028036833780820191505090505b509050600082602001820190505b60011561253d578080600190039150507f3031323334353637383961626364656600000000000000000000000000000000600a86061a8153600a8581612531576125306136d4565b5b049450600085036124e8575b819350505050919050565b600073ffffffffffffffffffffffffffffffffffffffff168273ffffffffffffffffffffffffffffffffffffffff16036125ba5760006040517f64a0ae920000000000000000000000000000000000000000000000000000000081526004016125b191906129b9565b60405180910390fd5b60006125c8838360006116f1565b9050600073ffffffffffffffffffffffffffffffffffffffff168173ffffffffffffffffffffffffffffffffffffffff161461263c5760006040517f73c6ac6e00000000000000000000000000000000000000000000000000000000815260040161263391906129b9565b60405180910390fd5b505050565b600080600090507a184f03e93ff9f4daa797ed6e38ed64bf6a1f010000000000000000831061269f577a184f03e93ff9f4daa797ed6e38ed64bf6a1f0100000000000000008381612695576126946136d4565b5b0492506040810190505b6d04ee2d6d415b85acef810000000083106126dc576d04ee2d6d415b85acef810000000083816126d2576126d16136d4565b5b0492506020810190505b662386f26fc10000831061270b57662386f26fc100008381612701576127006136d4565b5b0492506010810190505b6305f5e1008310612734576305f5e100838161272a576127296136d4565b5b0492506008810190505b612710831061275957612710838161274f5761274e6136d4565b5b0492506004810190505b6064831061277c5760648381612772576127716136d4565b5b0492506002810190505b600a831061278b576001810190505b80915050919050565b6000604051905090565b600080fd5b600080fd5b60007fffffffff0000000000000000000000000000000000000000000000000000000082169050919050565b6127dd816127a8565b81146127e857600080fd5b50565b6000813590506127fa816127d4565b92915050565b6000602082840312156128165761281561279e565b5b6000612824848285016127eb565b91505092915050565b60008115159050919050565b6128428161282d565b82525050565b600060208201905061285d6000830184612839565b92915050565b600081519050919050565b600082825260208201905092915050565b60005b8381101561289d578082015181840152602081019050612882565b60008484015250505050565b6000601f19601f8301169050919050565b60006128c582612863565b6128cf818561286e565b93506128df81856020860161287f565b6128e8816128a9565b840191505092915050565b6000602082019050818103600083015261290d81846128ba565b905092915050565b6000819050919050565b61292881612915565b811461293357600080fd5b50565b6000813590506129458161291f565b92915050565b6000602082840312156129615761296061279e565b5b600061296f84828501612936565b91505092915050565b600073ffffffffffffffffffffffffffffffffffffffff82169050919050565b60006129a382612978565b9050919050565b6129b381612998565b82525050565b60006020820190506129ce60008301846129aa565b92915050565b6129dd81612998565b81146129e857600080fd5b50565b6000813590506129fa816129d4565b92915050565b60008060408385031215612a1757612a1661279e565b5b6000612a25858286016129eb565b9250506020612a3685828601612936565b9150509250929050565b612a4981612915565b82525050565b6000602082019050612a646000830184612a40565b92915050565b600080fd5b600080fd5b7f4e487b7100000000000000000000000000000000000000000000000000000000600052604160045260246000fd5b612aac826128a9565b810181811067ffffffffffffffff82111715612acb57612aca612a74565b5b80604052505050565b6000612ade612794565b9050612aea8282612aa3565b919050565b600067ffffffffffffffff821115612b0a57612b09612a74565b5b612b13826128a9565b9050602081019050919050565b82818337600083830152505050565b6000612b42612b3d84612aef565b612ad4565b905082815260208101848484011115612b5e57612b5d612a6f565b5b612b69848285612b20565b509392505050565b600082601f830112612b8657612b85612a6a565b5b8135612b96848260208601612b2f565b91505092915050565b600060208284031215612bb557612bb461279e565b5b600082013567ffffffffffffffff811115612bd357612bd26127a3565b5b612bdf84828501612b71565b91505092915050565b60008060408385031215612bff57612bfe61279e565b5b600083013567ffffffffffffffff811115612c1d57612c1c6127a3565b5b612c2985828601612b71565b925050602083013567ffffffffffffffff811115612c4a57612c496127a3565b5b612c5685828601612b71565b9150509250929050565b600080600060608486031215612c7957612c7861279e565b5b6000612c87868287016129eb565b9350506020612c98868287016129eb565b9250506040612ca986828701612936565b9150509250925092565b600060208284031215612cc957612cc861279e565b5b6000612cd7848285016129eb565b91505092915050565b612ce98161282d565b8114612cf457600080fd5b50565b600081359050612d0681612ce0565b92915050565b60008060408385031215612d2357612d2261279e565b5b6000612d31858286016129eb565b9250506020612d4285828601612cf7565b9150509250929050565b600067ffffffffffffffff821115612d6757612d66612a74565b5b612d70826128a9565b9050602081019050919050565b6000612d90612d8b84612d4c565b612ad4565b905082815260208101848484011115612dac57612dab612a6f565b5b612db7848285612b20565b509392505050565b600082601f830112612dd457612dd3612a6a565b5b8135612de4848260208601612d7d565b91505092915050565b60008060008060808587031215612e0757612e0661279e565b5b6000612e15878288016129eb565b9450506020612e26878288016129eb565b9350506040612e3787828801612936565b925050606085013567ffffffffffffffff811115612e5857612e576127a3565b5b612e6487828801612dbf565b91505092959194509250565b60006060820190508181036000830152612e8a81866128ba565b90508181036020830152612e9e81856128ba565b9050612ead6040830184612a40565b949350505050565b60008060408385031215612ecc57612ecb61279e565b5b6000612eda858286016129eb565b9250506020612eeb858286016129eb565b9150509250929050565b7f4e487b7100000000000000000000000000000000000000000000000000000000600052602260045260246000fd5b60006002820490506001821680612f3c57607f821691505b602082108103612f4f57612f4e612ef5565b5b50919050565b7f53656e64657220686173206e6f7420646f6e6174656400000000000000000000600082015250565b6000612f8b60168361286e565b9150612f9682612f55565b602082019050919050565b60006020820190508181036000830152612fba81612f7e565b9050919050565b7f4e487b7100000000000000000000000000000000000000000000000000000000600052601160045260246000fd5b6000612ffb82612915565b91507fffffffffffffffffffffffffffffffffffffffffffffffffffffffffffffffff820361302d5761302c612fc1565b5b600182019050919050565b7f446f6e6174696f6e20616d6f756e7420646f6573206e6f74206d65657420746860008201527f6520726571756972656d656e747320666f7220616e79204e465420747970652060208201527f6f72206d617820737570706c7920726561636865640000000000000000000000604082015250565b60006130ba60558361286e565b91506130c582613038565b606082019050919050565b600060208201905081810360008301526130e9816130ad565b9050919050565b600060608201905061310560008301866129aa565b6131126020830185612a40565b818103604083015261312481846128ba565b9050949350505050565b7f446f6e6174696f6e20616d6f756e74206d75737420626520677265617465722060008201527f7468616e20300000000000000000000000000000000000000000000000000000602082015250565b600061318a60268361286e565b91506131958261312e565b604082019050919050565b600060208201905081810360008301526131b98161317d565b9050919050565b60006131cb82612915565b91506131d683612915565b92508282019050808211156131ee576131ed612fc1565b5b92915050565b60008190508160005260206000209050919050565b60006020601f8301049050919050565b600082821b905092915050565b6000600883026132567fffffffffffffffffffffffffffffffffffffffffffffffffffffffffffffffff82613219565b6132608683613219565b95508019841693508086168417925050509392505050565b6000819050919050565b600061329d61329861329384612915565b613278565b612915565b9050919050565b6000819050919050565b6132b783613282565b6132cb6132c3826132a4565b848454613226565b825550505050565b600090565b6132e06132d3565b6132eb8184846132ae565b505050565b5b8181101561330f576133046000826132d8565b6001810190506132f1565b5050565b601f82111561335457613325816131f4565b61332e84613209565b8101602085101561333d578190505b61335161334985613209565b8301826132f0565b50505b505050565b600082821c905092915050565b600061337760001984600802613359565b1980831691505092915050565b60006133908383613366565b9150826002028217905092915050565b6133a982612863565b67ffffffffffffffff8111156133c2576133c1612a74565b5b6133cc8254612f24565b6133d7828285613313565b600060209050601f83116001811461340a57600084156133f8578287015190505b6134028582613384565b86555061346a565b601f198416613418866131f4565b60005b828110156134405784890151825560018201915060208501945060208101905061341b565b8683101561345d5784890151613459601f891682613366565b8355505b6001600288020188555050505b505050505050565b600060808201905061348760008301876129aa565b818103602083015261349981866128ba565b905081810360408301526134ad81856128ba565b90506134bc6060830184612a40565b95945050505050565b60006060820190506134da60008301866129aa565b6134e76020830185612a40565b6134f460408301846129aa565b949350505050565b7f436f6e74726163742062616c616e6365206973207a65726f0000000000000000600082015250565b600061353260188361286e565b915061353d826134fc565b602082019050919050565b6000602082019050818103600083015261356181613525565b9050919050565b600081519050919050565b600082825260208201905092915050565b600061358f82613568565b6135998185613573565b93506135a981856020860161287f565b6135b2816128a9565b840191505092915050565b60006080820190506135d260008301876129aa565b6135df60208301866129aa565b6135ec6040830185612a40565b81810360608301526135fe8184613584565b905095945050505050565b600081519050613618816127d4565b92915050565b6000602082840312156136345761363361279e565b5b600061364284828501613609565b91505092915050565b600081905092915050565b600061366182612863565b61366b818561364b565b935061367b81856020860161287f565b80840191505092915050565b60006136938285613656565b915061369f8284613656565b91508190509392505050565b60006040820190506136c060008301856129aa565b6136cd6020830184612a40565b9392505050565b7f4e487b7100000000000000000000000000000000000000000000000000000000600052601260045260246000fdfea2646970667358221220417bdd272a6001696235b6d0bb6c944ff96f53d483f3039b530de7c5b928924764736f6c63430008180033",
  "linkReferences": {},
  "deployedLinkReferences": {}
}